{
  "contractName": "Token",
  "abi": [
    {
      "inputs": [
        {
          "internalType": "uint256",
          "name": "initialSupply",
          "type": "uint256"
        },
        {
          "internalType": "uint256",
          "name": "pricePerToken",
          "type": "uint256"
        }
      ],
      "payable": false,
      "stateMutability": "nonpayable",
      "type": "constructor"
    },
    {
      "anonymous": false,
      "inputs": [
        {
          "indexed": true,
          "internalType": "address",
          "name": "_from",
          "type": "address"
        },
        {
          "indexed": false,
          "internalType": "address",
          "name": "_to",
          "type": "address"
        },
        {
          "indexed": false,
          "internalType": "uint256",
          "name": "_numberOfTokens",
          "type": "uint256"
        }
      ],
      "name": "Transfered",
      "type": "event"
    },
    {
      "anonymous": false,
      "inputs": [
        {
          "indexed": true,
          "internalType": "address",
          "name": "_from",
          "type": "address"
        },
        {
          "indexed": false,
          "internalType": "string",
          "name": "_to",
          "type": "string"
        },
        {
          "indexed": false,
          "internalType": "string",
          "name": "_clientId",
          "type": "string"
        },
        {
          "indexed": false,
          "internalType": "string",
          "name": "_viaEvent",
          "type": "string"
        },
        {
          "indexed": false,
          "internalType": "uint256",
          "name": "_numberOfTokens",
          "type": "uint256"
        }
      ],
      "name": "TransferedToPot",
      "type": "event"
    },
    {
      "constant": true,
      "inputs": [
        {
          "internalType": "address",
          "name": "",
          "type": "address"
        }
      ],
      "name": "balanceOf",
      "outputs": [
        {
          "internalType": "uint256",
          "name": "",
          "type": "uint256"
        }
      ],
      "payable": false,
      "stateMutability": "view",
      "type": "function"
    },
    {
      "constant": true,
      "inputs": [
        {
          "internalType": "string",
          "name": "",
          "type": "string"
        }
      ],
      "name": "balanceOfPot",
      "outputs": [
        {
          "internalType": "uint256",
          "name": "",
          "type": "uint256"
        }
      ],
      "payable": false,
      "stateMutability": "view",
      "type": "function"
    },
    {
      "constant": true,
      "inputs": [],
      "name": "count",
      "outputs": [
        {
          "internalType": "uint256",
          "name": "",
          "type": "uint256"
        }
      ],
      "payable": false,
      "stateMutability": "view",
      "type": "function"
    },
    {
      "constant": true,
      "inputs": [],
      "name": "etherAmount",
      "outputs": [
        {
          "internalType": "uint256",
          "name": "",
          "type": "uint256"
        }
      ],
      "payable": false,
      "stateMutability": "view",
      "type": "function"
    },
    {
      "constant": true,
      "inputs": [],
      "name": "name",
      "outputs": [
        {
          "internalType": "string",
          "name": "",
          "type": "string"
        }
      ],
      "payable": false,
      "stateMutability": "view",
      "type": "function"
    },
    {
      "constant": true,
      "inputs": [],
      "name": "standard",
      "outputs": [
        {
          "internalType": "string",
          "name": "",
          "type": "string"
        }
      ],
      "payable": false,
      "stateMutability": "view",
      "type": "function"
    },
    {
      "constant": true,
      "inputs": [],
      "name": "symbol",
      "outputs": [
        {
          "internalType": "string",
          "name": "",
          "type": "string"
        }
      ],
      "payable": false,
      "stateMutability": "view",
      "type": "function"
    },
    {
      "constant": true,
      "inputs": [],
      "name": "tokenPrice",
      "outputs": [
        {
          "internalType": "uint256",
          "name": "",
          "type": "uint256"
        }
      ],
      "payable": false,
      "stateMutability": "view",
      "type": "function"
    },
    {
      "constant": false,
      "inputs": [
        {
          "internalType": "uint256",
          "name": "numberOfTokens",
          "type": "uint256"
        }
      ],
      "name": "buyTokens",
      "outputs": [
        {
          "internalType": "bool",
          "name": "",
          "type": "bool"
        }
      ],
      "payable": true,
      "stateMutability": "payable",
      "type": "function"
    },
    {
      "constant": false,
      "inputs": [
        {
          "internalType": "string",
          "name": "pot",
          "type": "string"
        },
        {
          "internalType": "uint256",
          "name": "numberOfTokens",
          "type": "uint256"
        },
        {
          "internalType": "string",
          "name": "clientId",
          "type": "string"
        },
        {
          "internalType": "string",
          "name": "viaEvent",
          "type": "string"
        }
      ],
      "name": "transfer",
      "outputs": [
        {
          "internalType": "bool",
          "name": "",
          "type": "bool"
        }
      ],
      "payable": false,
      "stateMutability": "nonpayable",
      "type": "function"
    },
    {
      "constant": false,
      "inputs": [
        {
          "internalType": "string",
          "name": "pot",
          "type": "string"
        },
        {
          "internalType": "address",
          "name": "to",
          "type": "address"
        }
      ],
      "name": "winnerTransfer",
      "outputs": [
        {
          "internalType": "bool",
          "name": "",
          "type": "bool"
        }
      ],
      "payable": false,
      "stateMutability": "nonpayable",
      "type": "function"
    },
    {
      "constant": false,
      "inputs": [
        {
          "internalType": "string",
          "name": "pot",
          "type": "string"
        },
        {
          "internalType": "address",
          "name": "to1",
          "type": "address"
        },
        {
          "internalType": "address",
          "name": "to2",
          "type": "address"
        }
      ],
      "name": "winnerTransferTie",
      "outputs": [
        {
          "internalType": "bool",
          "name": "",
          "type": "bool"
        }
      ],
      "payable": false,
      "stateMutability": "nonpayable",
      "type": "function"
    },
    {
      "constant": true,
      "inputs": [],
      "name": "getBalance",
      "outputs": [
        {
          "internalType": "uint256",
          "name": "",
          "type": "uint256"
        }
      ],
      "payable": false,
      "stateMutability": "view",
      "type": "function"
    },
    {
      "constant": true,
      "inputs": [
        {
          "internalType": "address",
          "name": "id",
          "type": "address"
        }
      ],
      "name": "getBalanceOther",
      "outputs": [
        {
          "internalType": "uint256",
          "name": "",
          "type": "uint256"
        }
      ],
      "payable": false,
      "stateMutability": "view",
      "type": "function"
    },
    {
      "constant": true,
      "inputs": [
        {
          "internalType": "string",
          "name": "id",
          "type": "string"
        }
      ],
      "name": "getBalancePot",
      "outputs": [
        {
          "internalType": "uint256",
          "name": "",
          "type": "uint256"
        }
      ],
      "payable": false,
      "stateMutability": "view",
      "type": "function"
    },
    {
      "constant": true,
      "inputs": [],
      "name": "getContractBalance",
      "outputs": [
        {
          "internalType": "uint256",
          "name": "",
          "type": "uint256"
        }
      ],
      "payable": false,
      "stateMutability": "view",
      "type": "function"
    },
    {
      "constant": false,
      "inputs": [],
      "name": "sendContractAmountToOwner",
      "outputs": [],
      "payable": true,
      "stateMutability": "payable",
      "type": "function"
    }
  ],
  "bytecode": "0x60806040526040518060400160405280600581526020017f43484950530000000000000000000000000000000000000000000000000000008152506000908051906020019062000051929190620001fb565b506040518060400160405280600381526020017f4348500000000000000000000000000000000000000000000000000000000000815250600190805190602001906200009f929190620001fb565b506040518060400160405280600a81526020017f43484950532076312e300000000000000000000000000000000000000000000081525060029080519060200190620000ed929190620001fb565b50348015620000fb57600080fd5b5060405162001b1838038062001b18833981810160405260408110156200012157600080fd5b81019080805190602001909291908051906020019092919050505033600660006101000a81548173ffffffffffffffffffffffffffffffffffffffff021916908373ffffffffffffffffffffffffffffffffffffffff1602179055508160038190555060035460076000600660009054906101000a900473ffffffffffffffffffffffffffffffffffffffff1673ffffffffffffffffffffffffffffffffffffffff1673ffffffffffffffffffffffffffffffffffffffff16815260200190815260200160002081905550806004819055505050620002aa565b828054600181600116156101000203166002900490600052602060002090601f016020900481019282601f106200023e57805160ff19168380011785556200026f565b828001600101855582156200026f579182015b828111156200026e57825182559160200191906001019062000251565b5b5090506200027e919062000282565b5090565b620002a791905b80821115620002a357600081600090555060010162000289565b5090565b90565b61185e80620002ba6000396000f3fe6080604052600436106100fe5760003560e01c80635a3b7e42116100955780636f9fb98a116100645780636f9fb98a1461086d57806370a08231146108985780637ff9b596146108fd57806395d89b4114610928578063b29623d2146109b8576100fe565b80635a3b7e42146104605780635b5e2e57146104f05780635bc5b0c7146107085780636f5eeb4e1461076d576100fe565b8063328e456d116100d1578063328e456d146101f35780633610724e146103135780633a10839e146103595780634935ce6f14610435576100fe565b806306661abd1461010357806306fdde031461012e57806312065fe0146101be5780632f21c99a146101e9575b600080fd5b34801561010f57600080fd5b50610118610a94565b6040518082815260200191505060405180910390f35b34801561013a57600080fd5b50610143610a9a565b6040518080602001828103825283818151815260200191508051906020019080838360005b83811015610183578082015181840152602081019050610168565b50505050905090810190601f1680156101b05780820380516001836020036101000a031916815260200191505b509250505060405180910390f35b3480156101ca57600080fd5b506101d3610b38565b6040518082815260200191505060405180910390f35b6101f1610b7f565b005b3480156101ff57600080fd5b506102f96004803603606081101561021657600080fd5b810190808035906020019064010000000081111561023357600080fd5b82018360208201111561024557600080fd5b8035906020019184600183028401116401000000008311171561026757600080fd5b91908080601f016020809104026020016040519081016040528093929190818152602001838380828437600081840152601f19601f820116905080830192505050505050509192919290803573ffffffffffffffffffffffffffffffffffffffff169060200190929190803573ffffffffffffffffffffffffffffffffffffffff169060200190929190505050610c44565b604051808215151515815260200191505060405180910390f35b61033f6004803603602081101561032957600080fd5b8101908080359060200190929190505050610eac565b604051808215151515815260200191505060405180910390f35b34801561036557600080fd5b5061041f6004803603602081101561037c57600080fd5b810190808035906020019064010000000081111561039957600080fd5b8201836020820111156103ab57600080fd5b803590602001918460018302840111640100000000831117156103cd57600080fd5b91908080601f016020809104026020016040519081016040528093929190818152602001838380828437600081840152601f19601f82011690508083019250505050505050919291929050505061109f565b6040518082815260200191505060405180910390f35b34801561044157600080fd5b5061044a611112565b6040518082815260200191505060405180910390f35b34801561046c57600080fd5b50610475611118565b6040518080602001828103825283818151815260200191508051906020019080838360005b838110156104b557808201518184015260208101905061049a565b50505050905090810190601f1680156104e25780820380516001836020036101000a031916815260200191505b509250505060405180910390f35b3480156104fc57600080fd5b506106ee6004803603608081101561051357600080fd5b810190808035906020019064010000000081111561053057600080fd5b82018360208201111561054257600080fd5b8035906020019184600183028401116401000000008311171561056457600080fd5b91908080601f016020809104026020016040519081016040528093929190818152602001838380828437600081840152601f19601f82011690508083019250505050505050919291929080359060200190929190803590602001906401000000008111156105d157600080fd5b8201836020820111156105e357600080fd5b8035906020019184600183028401116401000000008311171561060557600080fd5b91908080601f016020809104026020016040519081016040528093929190818152602001838380828437600081840152601f19601f8201169050808301925050505050505091929192908035906020019064010000000081111561066857600080fd5b82018360208201111561067a57600080fd5b8035906020019184600183028401116401000000008311171561069c57600080fd5b91908080601f016020809104026020016040519081016040528093929190818152602001838380828437600081840152601f19601f8201169050808301925050505050505091929192905050506111b6565b604051808215151515815260200191505060405180910390f35b34801561071457600080fd5b506107576004803603602081101561072b57600080fd5b81019080803573ffffffffffffffffffffffffffffffffffffffff1690602001909291905050506114d2565b6040518082815260200191505060405180910390f35b34801561077957600080fd5b506108536004803603604081101561079057600080fd5b81019080803590602001906401000000008111156107ad57600080fd5b8201836020820111156107bf57600080fd5b803590602001918460018302840111640100000000831117156107e157600080fd5b91908080601f016020809104026020016040519081016040528093929190818152602001838380828437600081840152601f19601f820116905080830192505050505050509192919290803573ffffffffffffffffffffffffffffffffffffffff16906020019092919050505061151b565b604051808215151515815260200191505060405180910390f35b34801561087957600080fd5b506108826116b4565b6040518082815260200191505060405180910390f35b3480156108a457600080fd5b506108e7600480360360208110156108bb57600080fd5b81019080803573ffffffffffffffffffffffffffffffffffffffff1690602001909291905050506116be565b6040518082815260200191505060405180910390f35b34801561090957600080fd5b506109126116d6565b6040518082815260200191505060405180910390f35b34801561093457600080fd5b5061093d6116dc565b6040518080602001828103825283818151815260200191508051906020019080838360005b8381101561097d578082015181840152602081019050610962565b50505050905090810190601f1680156109aa5780820380516001836020036101000a031916815260200191505b509250505060405180910390f35b3480156109c457600080fd5b50610a7e600480360360208110156109db57600080fd5b81019080803590602001906401000000008111156109f857600080fd5b820183602082011115610a0a57600080fd5b80359060200191846001830284011164010000000083111715610a2c57600080fd5b91908080601f016020809104026020016040519081016040528093929190818152602001838380828437600081840152601f19601f82011690508083019250505050505050919291929050505061177a565b6040518082815260200191505060405180910390f35b60095481565b60008054600181600116156101000203166002900480601f016020809104026020016040519081016040528092919081815260200182805460018160011615610100020316600290048015610b305780601f10610b0557610100808354040283529160200191610b30565b820191906000526020600020905b815481529060010190602001808311610b1357829003601f168201915b505050505081565b6000600760003373ffffffffffffffffffffffffffffffffffffffff1673ffffffffffffffffffffffffffffffffffffffff16815260200190815260200160002054905090565b600660009054906101000a900473ffffffffffffffffffffffffffffffffffffffff1673ffffffffffffffffffffffffffffffffffffffff163373ffffffffffffffffffffffffffffffffffffffff1614610bd957600080fd5b600660009054906101000a900473ffffffffffffffffffffffffffffffffffffffff1673ffffffffffffffffffffffffffffffffffffffff166108fc479081150290604051600060405180830381858888f19350505050158015610c41573d6000803e3d6000fd5b50565b6000600660009054906101000a900473ffffffffffffffffffffffffffffffffffffffff1673ffffffffffffffffffffffffffffffffffffffff163373ffffffffffffffffffffffffffffffffffffffff1614610ca057600080fd5b600060026008866040518082805190602001908083835b60208310610cda5780518252602082019150602081019050602083039250610cb7565b6001836020036101000a03801982511681845116808217855250505050505090500191505090815260200160405180910390205481610d1557fe5b049050806008866040518082805190602001908083835b60208310610d4f5780518252602082019150602081019050602083039250610d2c565b6001836020036101000a03801982511681845116808217855250505050505090500191505090815260200160405180910390206000828254039250508190555080600760008673ffffffffffffffffffffffffffffffffffffffff1673ffffffffffffffffffffffffffffffffffffffff16815260200190815260200160002060008282540192505081905550806008866040518082805190602001908083835b60208310610e135780518252602082019150602081019050602083039250610df0565b6001836020036101000a03801982511681845116808217855250505050505090500191505090815260200160405180910390206000828254039250508190555080600760008573ffffffffffffffffffffffffffffffffffffffff1673ffffffffffffffffffffffffffffffffffffffff1681526020019081526020016000206000828254019250508190555060019150509392505050565b6000610eba826004546117a8565b3414610f11576040517f08c379a00000000000000000000000000000000000000000000000000000000081526004018080602001828103825260308152602001806117fa6030913960400191505060405180910390fd5b8160076000600660009054906101000a900473ffffffffffffffffffffffffffffffffffffffff1673ffffffffffffffffffffffffffffffffffffffff1673ffffffffffffffffffffffffffffffffffffffff1681526020019081526020016000205411610fca576040517f08c379a00000000000000000000000000000000000000000000000000000000081526004018080602001828103825260258152602001806117d56025913960400191505060405180910390fd5b8160076000600660009054906101000a900473ffffffffffffffffffffffffffffffffffffffff1673ffffffffffffffffffffffffffffffffffffffff1673ffffffffffffffffffffffffffffffffffffffff1681526020019081526020016000206000828254039250508190555081600760003373ffffffffffffffffffffffffffffffffffffffff1673ffffffffffffffffffffffffffffffffffffffff168152602001908152602001600020600082825401925050819055503460056000828254019250508190555060019050919050565b60006008826040518082805190602001908083835b602083106110d757805182526020820191506020810190506020830392506110b4565b6001836020036101000a0380198251168184511680821785525050505050509050019150509081526020016040518091039020549050919050565b60055481565b60028054600181600116156101000203166002900480601f0160208091040260200160405190810160405280929190818152602001828054600181600116156101000203166002900480156111ae5780601f10611183576101008083540402835291602001916111ae565b820191906000526020600020905b81548152906001019060200180831161119157829003601f168201915b505050505081565b600083600760003373ffffffffffffffffffffffffffffffffffffffff1673ffffffffffffffffffffffffffffffffffffffff16815260200190815260200160002054101561126d576040517f08c379a00000000000000000000000000000000000000000000000000000000081526004018080602001828103825260148152602001807f496e73756666696369656e742062616c616e636500000000000000000000000081525060200191505060405180910390fd5b83600760003373ffffffffffffffffffffffffffffffffffffffff1673ffffffffffffffffffffffffffffffffffffffff16815260200190815260200160002060008282540392505081905550836008866040518082805190602001908083835b602083106112f157805182526020820191506020810190506020830392506112ce565b6001836020036101000a0380198251168184511680821785525050505050509050019150509081526020016040518091039020600082825401925050819055503373ffffffffffffffffffffffffffffffffffffffff167f683d0ec3071b51e4b611daeb8e92bd34e69cd02e71aeba1b51f4d3cdcacf9af88685858860405180806020018060200180602001858152602001848103845288818151815260200191508051906020019080838360005b838110156113bb5780820151818401526020810190506113a0565b50505050905090810190601f1680156113e85780820380516001836020036101000a031916815260200191505b50848103835287818151815260200191508051906020019080838360005b83811015611421578082015181840152602081019050611406565b50505050905090810190601f16801561144e5780820380516001836020036101000a031916815260200191505b50848103825286818151815260200191508051906020019080838360005b8381101561148757808201518184015260208101905061146c565b50505050905090810190601f1680156114b45780820380516001836020036101000a031916815260200191505b5097505050505050505060405180910390a260019050949350505050565b6000600760008373ffffffffffffffffffffffffffffffffffffffff1673ffffffffffffffffffffffffffffffffffffffff168152602001908152602001600020549050919050565b6000600660009054906101000a900473ffffffffffffffffffffffffffffffffffffffff1673ffffffffffffffffffffffffffffffffffffffff163373ffffffffffffffffffffffffffffffffffffffff161461157757600080fd5b60006008846040518082805190602001908083835b602083106115af578051825260208201915060208101905060208303925061158c565b6001836020036101000a0380198251168184511680821785525050505050509050019150509081526020016040518091039020549050806008856040518082805190602001908083835b6020831061161c57805182526020820191506020810190506020830392506115f9565b6001836020036101000a03801982511681845116808217855250505050505090500191505090815260200160405180910390206000828254039250508190555080600760008573ffffffffffffffffffffffffffffffffffffffff1673ffffffffffffffffffffffffffffffffffffffff16815260200190815260200160002060008282540192505081905550600191505092915050565b6000600554905090565b60076020528060005260406000206000915090505481565b60045481565b60018054600181600116156101000203166002900480601f0160208091040260200160405190810160405280929190818152602001828054600181600116156101000203166002900480156117725780601f1061174757610100808354040283529160200191611772565b820191906000526020600020905b81548152906001019060200180831161175557829003601f168201915b505050505081565b6008818051602081018201805184825260208301602085012081835280955050505050506000915090505481565b6000808214806117c557508282838502925082816117c257fe5b04145b6117ce57600080fd5b9291505056fe496e73756666696369656e74204c697175696469747920666f72207468697320746f6b656e496e73756666696369656e7420657468657220666f7220726571756972656420616d6f756e74206f6620746f6b656e73a265627a7a72315820a8bfc27f59b11a8f8fcaea05c279327a02f45e816220c54fea9fb564c248d44764736f6c63430005100032",
  "source": "pragma solidity ^0.5.0;\n\ncontract Token{\n    \n    string  public name = \"CHIPS\";\n    string  public symbol = \"CHP\";\n    string  public standard = \"CHIPS v1.0\";\n    \n    uint256 private totalSupply;\n    uint256 public tokenPrice;\n    uint256 public etherAmount;\n    address payable owner;\n\n\n    // address to balance\n    mapping (address => uint256) public balanceOf;\n    \n    // pot to balance\n    mapping (string => uint256) public balanceOfPot;\n    \n    uint256 public count;\n    \n    event Transfered(\n        address indexed _from,\n        address _to,\n        uint256 _numberOfTokens\n    );\n    \n    event TransferedToPot(\n        address indexed _from,\n        string _to,\n        string _clientId,\n        string _viaEvent,\n        uint256 _numberOfTokens\n    );\n   \n    constructor (uint256 initialSupply,uint256 pricePerToken) public {\n        owner = msg.sender;\n        totalSupply = initialSupply;\n        balanceOf[owner] = totalSupply;\n        tokenPrice = pricePerToken;\n    }\n    \n    function multiply(uint x, uint y) internal pure returns (uint z) {\n        require(y == 0 || (z = x * y) / y == x);\n    }\n    \n    function buyTokens(uint256 numberOfTokens) public payable returns (bool){\n        \n        require(msg.value == multiply(numberOfTokens, tokenPrice),\"Insufficient ether for required amount of tokens\");\n        \n        require(balanceOf[owner] > numberOfTokens,\"Insufficient Liquidity for this token\");\n\n        balanceOf[owner] -= numberOfTokens;\n\n        balanceOf[msg.sender] += numberOfTokens;    \n        \n        etherAmount += msg.value;\n\n        return true;\n    }\n\n\n    function transfer(string memory pot, uint256 numberOfTokens,string memory clientId,string memory viaEvent) public returns (bool){\n        \n        require(balanceOf[msg.sender] >= numberOfTokens,\"Insufficient balance\");\n\n        balanceOf[msg.sender] -= numberOfTokens;\n    \n        balanceOfPot[pot] += numberOfTokens;\n\n        emit TransferedToPot(msg.sender, pot,clientId,viaEvent,numberOfTokens);\n\n        return true;\n    }\n\n    \n    function winnerTransfer(string memory pot,address to) public returns (bool){\n    \n        require(msg.sender == owner);\n        \n        uint256 numberOfTokens=balanceOfPot[pot];\n        \n        balanceOfPot[pot]-=numberOfTokens;\n        \n        balanceOf[to]+=numberOfTokens;\n\n        return true;\n    }\n\n    function winnerTransferTie(string memory pot,address to1,address to2) public returns (bool){\n        \n        require(msg.sender == owner);\n        \n        uint256 numberOfTokens=balanceOfPot[pot]/2;\n        \n        balanceOfPot[pot]-=numberOfTokens;\n        \n        balanceOf[to1]+=numberOfTokens;\n\n        balanceOfPot[pot]-=numberOfTokens;\n        \n        balanceOf[to2]+=numberOfTokens;\n        \n        return true;\n    }\n\n    function getBalance() public view returns (uint256) {\n        return balanceOf[msg.sender];\n    }\n\n    function getBalanceOther(address id) public view returns (uint256) {\n        return balanceOf[id];\n    }\n    \n    function getBalancePot(string memory id) public view returns (uint256) {\n        return balanceOfPot[id];\n    }\n    \n    function getContractBalance() public view returns (uint256) {\n        return etherAmount;\n    }\n    \n    function sendContractAmountToOwner() public payable {\n        require(msg.sender == owner);\n        owner.transfer(address(this).balance);\n    }\n}\n",
  "sourcePath": "/Users/decentral/Documents/GitHub/IBC/contracts/game_coin.sol",
  "compiler": {
    "name": "solc",
    "version": "0.5.16+commit.9c3226ce.Emscripten.clang"
  },
  "schemaVersion": "3.4.3",
  "updatedAt": "2021-11-05T11:28:50.049Z",
  "networkType": "ethereum",
  "devdoc": {
    "methods": {}
  },
  "userdoc": {
    "methods": {}
  }
}