{
  "contractName": "Token",
  "abi": [
    {
      "inputs": [],
      "payable": false,
      "stateMutability": "nonpayable",
      "type": "constructor"
    },
    {
      "anonymous": false,
      "inputs": [
        {
          "indexed": true,
          "internalType": "address",
          "name": "_from",
          "type": "address"
        },
        {
          "indexed": false,
          "internalType": "address",
          "name": "_to",
          "type": "address"
        },
        {
          "indexed": false,
          "internalType": "uint256",
          "name": "_numberOfTokens",
          "type": "uint256"
        }
      ],
      "name": "Transfered",
      "type": "event"
    },
    {
      "anonymous": false,
      "inputs": [
        {
          "indexed": true,
          "internalType": "address",
          "name": "_from",
          "type": "address"
        },
        {
          "indexed": false,
          "internalType": "string",
          "name": "_to",
          "type": "string"
        },
        {
          "indexed": false,
          "internalType": "string",
          "name": "_clientId",
          "type": "string"
        },
        {
          "indexed": false,
          "internalType": "string",
          "name": "_viaEvent",
          "type": "string"
        },
        {
          "indexed": false,
          "internalType": "uint256",
          "name": "_numberOfTokens",
          "type": "uint256"
        }
      ],
      "name": "TransferedToPot",
      "type": "event"
    },
    {
      "constant": true,
      "inputs": [
        {
          "internalType": "address",
          "name": "",
          "type": "address"
        }
      ],
      "name": "balanceOf",
      "outputs": [
        {
          "internalType": "uint256",
          "name": "",
          "type": "uint256"
        }
      ],
      "payable": false,
      "stateMutability": "view",
      "type": "function"
    },
    {
      "constant": true,
      "inputs": [
        {
          "internalType": "string",
          "name": "",
          "type": "string"
        }
      ],
      "name": "balanceOfPot",
      "outputs": [
        {
          "internalType": "uint256",
          "name": "",
          "type": "uint256"
        }
      ],
      "payable": false,
      "stateMutability": "view",
      "type": "function"
    },
    {
      "constant": true,
      "inputs": [],
      "name": "count",
      "outputs": [
        {
          "internalType": "uint256",
          "name": "",
          "type": "uint256"
        }
      ],
      "payable": false,
      "stateMutability": "view",
      "type": "function"
    },
    {
      "constant": true,
      "inputs": [],
      "name": "etherAmount",
      "outputs": [
        {
          "internalType": "uint256",
          "name": "",
          "type": "uint256"
        }
      ],
      "payable": false,
      "stateMutability": "view",
      "type": "function"
    },
    {
      "constant": true,
      "inputs": [],
      "name": "name",
      "outputs": [
        {
          "internalType": "string",
          "name": "",
          "type": "string"
        }
      ],
      "payable": false,
      "stateMutability": "view",
      "type": "function"
    },
    {
      "constant": true,
      "inputs": [],
      "name": "standard",
      "outputs": [
        {
          "internalType": "string",
          "name": "",
          "type": "string"
        }
      ],
      "payable": false,
      "stateMutability": "view",
      "type": "function"
    },
    {
      "constant": true,
      "inputs": [],
      "name": "symbol",
      "outputs": [
        {
          "internalType": "string",
          "name": "",
          "type": "string"
        }
      ],
      "payable": false,
      "stateMutability": "view",
      "type": "function"
    },
    {
      "constant": true,
      "inputs": [],
      "name": "tokenPrice",
      "outputs": [
        {
          "internalType": "uint256",
          "name": "",
          "type": "uint256"
        }
      ],
      "payable": false,
      "stateMutability": "view",
      "type": "function"
    },
    {
      "constant": false,
      "inputs": [
        {
          "internalType": "uint256",
          "name": "numberOfTokens",
          "type": "uint256"
        }
      ],
      "name": "buyTokens",
      "outputs": [
        {
          "internalType": "bool",
          "name": "",
          "type": "bool"
        }
      ],
      "payable": true,
      "stateMutability": "payable",
      "type": "function"
    },
    {
      "constant": false,
      "inputs": [
        {
          "internalType": "string",
          "name": "pot",
          "type": "string"
        },
        {
          "internalType": "uint256",
          "name": "numberOfTokens",
          "type": "uint256"
        },
        {
          "internalType": "string",
          "name": "clientId",
          "type": "string"
        },
        {
          "internalType": "string",
          "name": "viaEvent",
          "type": "string"
        }
      ],
      "name": "transfer",
      "outputs": [
        {
          "internalType": "bool",
          "name": "",
          "type": "bool"
        }
      ],
      "payable": false,
      "stateMutability": "nonpayable",
      "type": "function"
    },
    {
      "constant": false,
      "inputs": [
        {
          "internalType": "string",
          "name": "pot",
          "type": "string"
        },
        {
          "internalType": "address",
          "name": "to",
          "type": "address"
        }
      ],
      "name": "winnerTransfer",
      "outputs": [
        {
          "internalType": "bool",
          "name": "",
          "type": "bool"
        }
      ],
      "payable": false,
      "stateMutability": "nonpayable",
      "type": "function"
    },
    {
      "constant": false,
      "inputs": [
        {
          "internalType": "string",
          "name": "pot",
          "type": "string"
        },
        {
          "internalType": "address",
          "name": "to1",
          "type": "address"
        },
        {
          "internalType": "address",
          "name": "to2",
          "type": "address"
        }
      ],
      "name": "winnerTransferTie",
      "outputs": [
        {
          "internalType": "bool",
          "name": "",
          "type": "bool"
        }
      ],
      "payable": false,
      "stateMutability": "nonpayable",
      "type": "function"
    },
    {
      "constant": true,
      "inputs": [],
      "name": "getBalance",
      "outputs": [
        {
          "internalType": "uint256",
          "name": "",
          "type": "uint256"
        }
      ],
      "payable": false,
      "stateMutability": "view",
      "type": "function"
    },
    {
      "constant": true,
      "inputs": [
        {
          "internalType": "address",
          "name": "id",
          "type": "address"
        }
      ],
      "name": "getBalanceOther",
      "outputs": [
        {
          "internalType": "uint256",
          "name": "",
          "type": "uint256"
        }
      ],
      "payable": false,
      "stateMutability": "view",
      "type": "function"
    },
    {
      "constant": true,
      "inputs": [
        {
          "internalType": "string",
          "name": "id",
          "type": "string"
        }
      ],
      "name": "getBalancePot",
      "outputs": [
        {
          "internalType": "uint256",
          "name": "",
          "type": "uint256"
        }
      ],
      "payable": false,
      "stateMutability": "view",
      "type": "function"
    },
    {
      "constant": true,
      "inputs": [],
      "name": "getContractBalance",
      "outputs": [
        {
          "internalType": "uint256",
          "name": "",
          "type": "uint256"
        }
      ],
      "payable": false,
      "stateMutability": "view",
      "type": "function"
    },
    {
      "constant": false,
      "inputs": [],
      "name": "sendContractAmountToOwner",
      "outputs": [],
      "payable": true,
      "stateMutability": "payable",
      "type": "function"
    }
  ],
  "bytecode": "0x60806040526040518060400160405280600581526020017f43484950530000000000000000000000000000000000000000000000000000008152506000908051906020019062000051929190620001bb565b506040518060400160405280600381526020017f5953540000000000000000000000000000000000000000000000000000000000815250600190805190602001906200009f929190620001bb565b506040518060400160405280600a81526020017f43484950532076312e300000000000000000000000000000000000000000000081525060029080519060200190620000ed929190620001bb565b50662386f26fc1000060035560016004553480156200010b57600080fd5b5033600660006101000a81548173ffffffffffffffffffffffffffffffffffffffff021916908373ffffffffffffffffffffffffffffffffffffffff16021790555060035460076000600660009054906101000a900473ffffffffffffffffffffffffffffffffffffffff1673ffffffffffffffffffffffffffffffffffffffff1673ffffffffffffffffffffffffffffffffffffffff168152602001908152602001600020819055506200026a565b828054600181600116156101000203166002900490600052602060002090601f016020900481019282601f10620001fe57805160ff19168380011785556200022f565b828001600101855582156200022f579182015b828111156200022e57825182559160200191906001019062000211565b5b5090506200023e919062000242565b5090565b6200026791905b808211156200026357600081600090555060010162000249565b5090565b90565b6117d3806200027a6000396000f3fe60806040526004361061011b576000357c0100000000000000000000000000000000000000000000000000000000900480635a3b7e42116100b25780636f9fb98a116100815780636f9fb98a1461088a57806370a08231146108b55780637ff9b5961461091a57806395d89b4114610945578063b29623d2146109d55761011b565b80635a3b7e421461047d5780635b5e2e571461050d5780635bc5b0c7146107255780636f5eeb4e1461078a5761011b565b8063328e456d116100ee578063328e456d146102105780633610724e146103305780633a10839e146103765780634935ce6f146104525761011b565b806306661abd1461012057806306fdde031461014b57806312065fe0146101db5780632f21c99a14610206575b600080fd5b34801561012c57600080fd5b50610135610ab1565b6040518082815260200191505060405180910390f35b34801561015757600080fd5b50610160610ab7565b6040518080602001828103825283818151815260200191508051906020019080838360005b838110156101a0578082015181840152602081019050610185565b50505050905090810190601f1680156101cd5780820380516001836020036101000a031916815260200191505b509250505060405180910390f35b3480156101e757600080fd5b506101f0610b55565b6040518082815260200191505060405180910390f35b61020e610b9c565b005b34801561021c57600080fd5b506103166004803603606081101561023357600080fd5b810190808035906020019064010000000081111561025057600080fd5b82018360208201111561026257600080fd5b8035906020019184600183028401116401000000008311171561028457600080fd5b91908080601f016020809104026020016040519081016040528093929190818152602001838380828437600081840152601f19601f820116905080830192505050505050509192919290803573ffffffffffffffffffffffffffffffffffffffff169060200190929190803573ffffffffffffffffffffffffffffffffffffffff169060200190929190505050610c78565b604051808215151515815260200191505060405180910390f35b61035c6004803603602081101561034657600080fd5b8101908080359060200190929190505050610ee0565b604051808215151515815260200191505060405180910390f35b34801561038257600080fd5b5061043c6004803603602081101561039957600080fd5b81019080803590602001906401000000008111156103b657600080fd5b8201836020820111156103c857600080fd5b803590602001918460018302840111640100000000831117156103ea57600080fd5b91908080601f016020809104026020016040519081016040528093929190818152602001838380828437600081840152601f19601f820116905080830192505050505050509192919290505050611070565b6040518082815260200191505060405180910390f35b34801561045e57600080fd5b506104676110e3565b6040518082815260200191505060405180910390f35b34801561048957600080fd5b506104926110e9565b6040518080602001828103825283818151815260200191508051906020019080838360005b838110156104d25780820151818401526020810190506104b7565b50505050905090810190601f1680156104ff5780820380516001836020036101000a031916815260200191505b509250505060405180910390f35b34801561051957600080fd5b5061070b6004803603608081101561053057600080fd5b810190808035906020019064010000000081111561054d57600080fd5b82018360208201111561055f57600080fd5b8035906020019184600183028401116401000000008311171561058157600080fd5b91908080601f016020809104026020016040519081016040528093929190818152602001838380828437600081840152601f19601f82011690508083019250505050505050919291929080359060200190929190803590602001906401000000008111156105ee57600080fd5b82018360208201111561060057600080fd5b8035906020019184600183028401116401000000008311171561062257600080fd5b91908080601f016020809104026020016040519081016040528093929190818152602001838380828437600081840152601f19601f8201169050808301925050505050505091929192908035906020019064010000000081111561068557600080fd5b82018360208201111561069757600080fd5b803590602001918460018302840111640100000000831117156106b957600080fd5b91908080601f016020809104026020016040519081016040528093929190818152602001838380828437600081840152601f19601f820116905080830192505050505050509192919290505050611187565b604051808215151515815260200191505060405180910390f35b34801561073157600080fd5b506107746004803603602081101561074857600080fd5b81019080803573ffffffffffffffffffffffffffffffffffffffff1690602001909291905050506114a3565b6040518082815260200191505060405180910390f35b34801561079657600080fd5b50610870600480360360408110156107ad57600080fd5b81019080803590602001906401000000008111156107ca57600080fd5b8201836020820111156107dc57600080fd5b803590602001918460018302840111640100000000831117156107fe57600080fd5b91908080601f016020809104026020016040519081016040528093929190818152602001838380828437600081840152601f19601f820116905080830192505050505050509192919290803573ffffffffffffffffffffffffffffffffffffffff1690602001909291905050506114ec565b604051808215151515815260200191505060405180910390f35b34801561089657600080fd5b5061089f611685565b6040518082815260200191505060405180910390f35b3480156108c157600080fd5b50610904600480360360208110156108d857600080fd5b81019080803573ffffffffffffffffffffffffffffffffffffffff16906020019092919050505061168f565b6040518082815260200191505060405180910390f35b34801561092657600080fd5b5061092f6116a7565b6040518082815260200191505060405180910390f35b34801561095157600080fd5b5061095a6116ad565b6040518080602001828103825283818151815260200191508051906020019080838360005b8381101561099a57808201518184015260208101905061097f565b50505050905090810190601f1680156109c75780820380516001836020036101000a031916815260200191505b509250505060405180910390f35b3480156109e157600080fd5b50610a9b600480360360208110156109f857600080fd5b8101908080359060200190640100000000811115610a1557600080fd5b820183602082011115610a2757600080fd5b80359060200191846001830284011164010000000083111715610a4957600080fd5b91908080601f016020809104026020016040519081016040528093929190818152602001838380828437600081840152601f19601f82011690508083019250505050505050919291929050505061174b565b6040518082815260200191505060405180910390f35b60095481565b60008054600181600116156101000203166002900480601f016020809104026020016040519081016040528092919081815260200182805460018160011615610100020316600290048015610b4d5780601f10610b2257610100808354040283529160200191610b4d565b820191906000526020600020905b815481529060010190602001808311610b3057829003601f168201915b505050505081565b6000600760003373ffffffffffffffffffffffffffffffffffffffff1673ffffffffffffffffffffffffffffffffffffffff16815260200190815260200160002054905090565b600660009054906101000a900473ffffffffffffffffffffffffffffffffffffffff1673ffffffffffffffffffffffffffffffffffffffff163373ffffffffffffffffffffffffffffffffffffffff1614610bf657600080fd5b600660009054906101000a900473ffffffffffffffffffffffffffffffffffffffff1673ffffffffffffffffffffffffffffffffffffffff166108fc3073ffffffffffffffffffffffffffffffffffffffff16319081150290604051600060405180830381858888f19350505050158015610c75573d6000803e3d6000fd5b50565b6000600660009054906101000a900473ffffffffffffffffffffffffffffffffffffffff1673ffffffffffffffffffffffffffffffffffffffff163373ffffffffffffffffffffffffffffffffffffffff1614610cd457600080fd5b600060026008866040518082805190602001908083835b60208310610d0e5780518252602082019150602081019050602083039250610ceb565b6001836020036101000a03801982511681845116808217855250505050505090500191505090815260200160405180910390205481610d4957fe5b049050806008866040518082805190602001908083835b60208310610d835780518252602082019150602081019050602083039250610d60565b6001836020036101000a03801982511681845116808217855250505050505090500191505090815260200160405180910390206000828254039250508190555080600760008673ffffffffffffffffffffffffffffffffffffffff1673ffffffffffffffffffffffffffffffffffffffff16815260200190815260200160002060008282540192505081905550806008866040518082805190602001908083835b60208310610e475780518252602082019150602081019050602083039250610e24565b6001836020036101000a03801982511681845116808217855250505050505090500191505090815260200160405180910390206000828254039250508190555080600760008573ffffffffffffffffffffffffffffffffffffffff1673ffffffffffffffffffffffffffffffffffffffff1681526020019081526020016000206000828254019250508190555060019150509392505050565b60008160076000600660009054906101000a900473ffffffffffffffffffffffffffffffffffffffff1673ffffffffffffffffffffffffffffffffffffffff1673ffffffffffffffffffffffffffffffffffffffff1681526020019081526020016000205411610f9b576040517f08c379a000000000000000000000000000000000000000000000000000000000815260040180806020018281038252602581526020018061177a6025913960400191505060405180910390fd5b8160076000600660009054906101000a900473ffffffffffffffffffffffffffffffffffffffff1673ffffffffffffffffffffffffffffffffffffffff1673ffffffffffffffffffffffffffffffffffffffff1681526020019081526020016000206000828254039250508190555081600760003373ffffffffffffffffffffffffffffffffffffffff1673ffffffffffffffffffffffffffffffffffffffff168152602001908152602001600020600082825401925050819055503460056000828254019250508190555060019050919050565b60006008826040518082805190602001908083835b602083106110a85780518252602082019150602081019050602083039250611085565b6001836020036101000a0380198251168184511680821785525050505050509050019150509081526020016040518091039020549050919050565b60055481565b60028054600181600116156101000203166002900480601f01602080910402602001604051908101604052809291908181526020018280546001816001161561010002031660029004801561117f5780601f106111545761010080835404028352916020019161117f565b820191906000526020600020905b81548152906001019060200180831161116257829003601f168201915b505050505081565b600083600760003373ffffffffffffffffffffffffffffffffffffffff1673ffffffffffffffffffffffffffffffffffffffff16815260200190815260200160002054101561123e576040517f08c379a00000000000000000000000000000000000000000000000000000000081526004018080602001828103825260148152602001807f496e73756666696369656e742062616c616e636500000000000000000000000081525060200191505060405180910390fd5b83600760003373ffffffffffffffffffffffffffffffffffffffff1673ffffffffffffffffffffffffffffffffffffffff16815260200190815260200160002060008282540392505081905550836008866040518082805190602001908083835b602083106112c2578051825260208201915060208101905060208303925061129f565b6001836020036101000a0380198251168184511680821785525050505050509050019150509081526020016040518091039020600082825401925050819055503373ffffffffffffffffffffffffffffffffffffffff167f683d0ec3071b51e4b611daeb8e92bd34e69cd02e71aeba1b51f4d3cdcacf9af88685858860405180806020018060200180602001858152602001848103845288818151815260200191508051906020019080838360005b8381101561138c578082015181840152602081019050611371565b50505050905090810190601f1680156113b95780820380516001836020036101000a031916815260200191505b50848103835287818151815260200191508051906020019080838360005b838110156113f25780820151818401526020810190506113d7565b50505050905090810190601f16801561141f5780820380516001836020036101000a031916815260200191505b50848103825286818151815260200191508051906020019080838360005b8381101561145857808201518184015260208101905061143d565b50505050905090810190601f1680156114855780820380516001836020036101000a031916815260200191505b5097505050505050505060405180910390a260019050949350505050565b6000600760008373ffffffffffffffffffffffffffffffffffffffff1673ffffffffffffffffffffffffffffffffffffffff168152602001908152602001600020549050919050565b6000600660009054906101000a900473ffffffffffffffffffffffffffffffffffffffff1673ffffffffffffffffffffffffffffffffffffffff163373ffffffffffffffffffffffffffffffffffffffff161461154857600080fd5b60006008846040518082805190602001908083835b60208310611580578051825260208201915060208101905060208303925061155d565b6001836020036101000a0380198251168184511680821785525050505050509050019150509081526020016040518091039020549050806008856040518082805190602001908083835b602083106115ed57805182526020820191506020810190506020830392506115ca565b6001836020036101000a03801982511681845116808217855250505050505090500191505090815260200160405180910390206000828254039250508190555080600760008573ffffffffffffffffffffffffffffffffffffffff1673ffffffffffffffffffffffffffffffffffffffff16815260200190815260200160002060008282540192505081905550600191505092915050565b6000600554905090565b60076020528060005260406000206000915090505481565b60045481565b60018054600181600116156101000203166002900480601f0160208091040260200160405190810160405280929190818152602001828054600181600116156101000203166002900480156117435780601f1061171857610100808354040283529160200191611743565b820191906000526020600020905b81548152906001019060200180831161172657829003601f168201915b505050505081565b600881805160208101820180518482526020830160208501208183528095505050505050600091509050548156fe496e73756666696369656e74204c697175696469747920666f72207468697320746f6b656ea265627a7a723158200d6f2a14ce050bca2b4c6dc49eb20a5ff5b205750b9d2e797bfaac9bae16473664736f6c63430005100032",
  "source": "pragma solidity ^0.5.0;\n\ncontract Token{\n    \n    string  public name = \"CHIPS\";\n    string  public symbol = \"YST\";\n    string  public standard = \"CHIPS v1.0\";\n    \n    uint256 private totalSupply= 10000000000000000;\n    uint256 public tokenPrice=1;\n    uint256 public etherAmount;\n    address payable owner;\n\n    // address to balance\n    mapping (address => uint256) public balanceOf;\n    \n    // pot to balance\n    mapping (string => uint256) public balanceOfPot;\n    \n    uint256 public count;\n    \n    event Transfered(\n        address indexed _from,\n        address _to,\n        uint256 _numberOfTokens\n    );\n    \n    event TransferedToPot(\n        address indexed _from,\n        string _to,\n        string _clientId,\n        string _viaEvent,\n        uint256 _numberOfTokens\n    );\n   \n    constructor () public {\n        owner = msg.sender;\n        balanceOf[owner] = totalSupply;\n    }\n    \n    function multiply(uint x, uint y) internal pure returns (uint z) {\n        require(y == 0 || (z = x * y) / y == x);\n    }\n    \n    function buyTokens(uint256 numberOfTokens) public payable returns (bool){\n        \n        //require(msg.value == multiply(numberOfTokens, tokenPrice),\"Insufficient ether shreeya for required amount of tokens\");\n        \n        require(balanceOf[owner] > numberOfTokens,\"Insufficient Liquidity for this token\");\n\n        balanceOf[owner] -= numberOfTokens;\n        \n        balanceOf[msg.sender] += numberOfTokens;    \n        \n        etherAmount += msg.value;\n\n        return true;\n    }\n\n\n    function transfer(string memory pot, uint256 numberOfTokens,string memory clientId,string memory viaEvent) public returns (bool){\n        \n        require(balanceOf[msg.sender] >= numberOfTokens,\"Insufficient balance\");\n\n        balanceOf[msg.sender] -= numberOfTokens;\n    \n        balanceOfPot[pot] += numberOfTokens;\n\n        emit TransferedToPot(msg.sender, pot,clientId,viaEvent,numberOfTokens);\n\n        return true;\n    }\n\n    \n    function winnerTransfer(string memory pot,address to) public returns (bool){\n    \n        require(msg.sender == owner);\n        \n        uint256 numberOfTokens=balanceOfPot[pot];\n        \n        balanceOfPot[pot]-=numberOfTokens;\n        \n        balanceOf[to]+=numberOfTokens;\n\n        return true;\n    }\n\n    function winnerTransferTie(string memory pot,address to1,address to2) public returns (bool){\n        \n        require(msg.sender == owner);\n        \n        uint256 numberOfTokens=balanceOfPot[pot]/2;\n        \n        balanceOfPot[pot]-=numberOfTokens;\n        \n        balanceOf[to1]+=numberOfTokens;\n\n        balanceOfPot[pot]-=numberOfTokens;\n        \n        balanceOf[to2]+=numberOfTokens;\n        \n        return true;\n    }\n\n    function getBalance() public view returns (uint256) {\n        return balanceOf[msg.sender];\n    }\n\n    function getBalanceOther(address id) public view returns (uint256) {\n        return balanceOf[id];\n    }\n    \n    function getBalancePot(string memory id) public view returns (uint256) {\n        return balanceOfPot[id];\n    }\n    \n    function getContractBalance() public view returns (uint256) {\n        return etherAmount;\n    }\n    \n    function sendContractAmountToOwner() public payable {\n        require(msg.sender == owner);\n        owner.transfer(address(this).balance);\n    }\n}\n",
  "sourcePath": "/Users/decentral/Documents/GitHub/IBC/contracts/game_coin.sol",
  "compiler": {
    "name": "solc",
    "version": "0.5.16+commit.9c3226ce.Emscripten.clang"
  },
  "schemaVersion": "3.4.3",
  "updatedAt": "2021-11-21T23:30:29.943Z",
  "devdoc": {
    "methods": {}
  },
  "userdoc": {
    "methods": {}
  }
}